:020000040800F2
:1000000000300020C9010008190200081902000888
:100010001902000819020008190200080000000077
:1000200000000000000000000000000019020008AD
:100030001902000800000000190200081902000857
:100040001902000819020008190200081902000824
:100050001902000819020008190200081902000814
:100060001902000819020008190200081902000804
:1000700019020008190200081902000819020008F4
:1000800019020008190200081902000819020008E4
:1000900019020008190200081902000819020008D4
:1000A00019020008190200081902000819020008C4
:1000B00019020008190200080000000019020008D7
:1000C00019020008000000000000000019020008EA
:1000D00000000000190200081902000819020008B7
:1000E00019020008190200080000000000000000CA
:1000F0000000000000000000000000000000000000
:1001000000000000000000000000000000000000EF
:100110000000000000000000190200081902000899
:1001200000000000000000000000000000000000CF
:1001300000000000000000000000000000000000BF
:100140001902000819020008000000001902000846
:100150001902000819020008190200081902000813
:100160001902000819020008000000000000000049
:10017000000000000000000000000000000000007F
:08018000000000001902000854
:1001880010B5054C237833B9044B13B10448AFF3C9
:1001980000800123237010BD2C0400200000000003
:1001A8004006000808B5034B1BB103490348AFF3E9
:1001B800008008BD00000000300400204006000850
:1001C800DFF834D0002103E00C4B5B584350043176
:1001D8000B480C4B42189A42F6D30B4A02E0002314
:1001E80042F8043B094B9A42F9D300F013F800F0A7
:1001F8008FF900F0DFF8FEE70030002070060008F5
:10020800000000202C0400202C0400206C04002096
:10021800FEE700001549D1F8883043F47003C1F8AF
:100228008830134B1A6842F001021A605868114A64
:1002380002405A601A6822F0847222F480321A60EE
:100248001A6822F480221A605A6822F4FE025A6060
:10025800DA6A22F00F02DA62186B074A02401A6360
:1002680000229A604FF000638B60704700ED00E059
:10027800001002400CC07FF8CCFC00FF2A4A5369EA
:1002880043F480235361294B196821F440611960B4
:10029800196841F480611960596821F0200159609A
:1002A80059685960996821F4406199609968996022
:1002B800D96821F44061D960D968D960196A21F4F4
:1002C80040111962596A5962196A1962596A596260
:1002D800536943F4003353614FF090431A6822F096
:1002E80040421A601A6842F080421A605A6822F442
:1002F80000425A605A685A609A6822F040429A60EE
:100308009A689A60DA6822F04042DA60DA68DA605D
:100318001A6A1A625A6A22F040525A621A6A1A62B1
:100328005A6A5A62704700BF001002400004004831
:10033800184A136843F480331360164B1B6813F490
:10034800003FFAD0144A136843F002031360114BBC
:100358005A6842F4E0125A605A6842F480325A608D
:10036800DA6A42F4A872DA621A6842F080721A6095
:10037800084B1B6813F0007FFAD0064A536843F015
:1003880002035360034B5B6803F00C03082BF9D19D
:10039800704700BF001002400020024082B00023D6
:1003A8000193019B834203D2019B01330193F8E738
:1003B80002B0704708B5FFF7BBFFFFF75FFF514A70
:1003C800536943F4003353614FF09043196821F4A3
:1003D80070211960196841F420211960596821F4C5
:1003E8004071596059685960996821F47021996081
:1003F800996841F470219960D96821F47021D96015
:10040800D96841F42021D960196A1962596A21F022
:1004180033015962196A1962596A41F0DD0159625A
:10042800136B43F480531363936943F00053936150
:10043800A2F51C42D2F8CC3343F00303C2F8CC3304
:10044800314BD3F8883313F4803FF9D02E4B4AF65A
:10045800C871C3F894100022C3F89C20D3F8E42094
:1004680042F48072C3F8E420D3F8B82042F4406222
:10047800C3F8B820D3F8B82042F00F12C3F8B82058
:10048800D3F8B82042F04022C3F8B82041F29412C1
:10049800C3F82421D3F8802342F48012C3F88023C0
:1004A800D3F8C02342F48042C3F8C023D3F8BC2059
:1004B80042F00402C3F8BC20D3F8C02042F008027E
:1004C800C3F8C020D3F8942342F00302C3F894235E
:1004D800D3F8802042F00802C3F8802059611A68D6
:1004E80042F440321A6044F25062C3F89C204FF044
:1004F8009042536983F4004353610448FFF74EFF69
:10050800F5E700BF001002400074014040420F00B0
:1005180070B50D4E0D4D761BB61006D0002455F85B
:10052800043B01349847A642F9D1094E094D761B80
:1005380000F082F8B61006D0002455F8043B0134C8
:100548009847A642F9D170BD640600086406000801
:100558006C06000864060008024B13B1024800F05C
:1005680005B8704700000000810500080023014617
:100578001A46184600F01AB838B5084B084D5B1BE8
:100588009C1007D0043B1D44013C55F8043998479A
:10059800002CF9D1BDE8384000F054B870060008C6
:1005A8006C060008704700BF704700BF2DE9F04790
:1005B800DFF880A00646DAF8000098460F46914614
:1005C800FFF7F0FF1A4B1B68D3F8484124B365685E
:1005D8001F2D26DC5EB9AB1C0135DAF8000065601A
:1005E80044F82370FFF7E0FF0020BDE8F08704EB34
:1005F80085030121C3F88890D4F88821A9400A43CB
:10060800022EC4F88821C3F80881E4D1D4F88C31CB
:100618001943C4F88C11DEE703F5A674C3F8484102
:10062800D5E7DAF80000FFF7BFFF4FF0FF30DCE74F
:100638005806000828040020F8B500BFF8BC08BC1C
:100648009E467047F8B500BFF8BC08BC9E46704788
:04065800000000207E
:08065C0028FCFF7F01000000F3
:0806640061050008AD0100086A
:04066C0089010008F8
:1006700000000000EC02002054030020BC03002016
:10068000000000000000000000000000000000006A
:10069000000000000000000000000000000000005A
:1006A000000000000000000000000000000000004A
:1006B000000000000000000000000000000000003A
:1006C000000000000000000000000000000000002A
:1006D000000000000000000000000000000000001A
:1006E000000000000000000000000000000000000A
:1006F00000000000000000000000000000000000FA
:1007000000000000000000000000000000000000E9
:1007100000000000000000000100000000000000D8
:100720000E33CDAB34126DE6ECDE05000B0000009D
:1007300000000000000000000000000000000000B9
:1007400000000000000000000000000000000000A9
:100750000000000000000000000000000000000099
:100760000000000000000000000000000000000089
:0C0A9000000000000000000048040020EE
:04000005080001C925
:00000001FF
